:020000040800F2
:10000000B80A00200D0200088D1700088F1700089D
:1000100093170008971700089B17000800000000BE
:100020000000000000000000000000009F17000812
:10003000A117000800000000A3170008A51700087A
:1000400027020008270200082702000827020008EC
:1000500027020008270200082702000827020008DC
:1000600027020008270200082702000827020008CC
:1000700027020008270200082702000827020008BC
:1000800027020008270200082702000827020008AC
:10009000270200082702000827020008270200089C
:1000A000270200082702000827020008270200088C
:1000B000270200082702000827020008270200087C
:1000C000270200082702000827020008270200086C
:1000D000270200082702000827020008270200085C
:1000E000270200082702000827020008270200084C
:1000F000270200082702000827020008270200083C
:10010000270200082702000827020008270200082B
:10011000270200082702000827020008270200081B
:10012000270200082702000827020008270200080B
:1001300000F002F800F05AF80AA090E8000C82449F
:100140008344AAF10107DA4501D100F04FF8AFF27C
:10015000090EBAE80F0013F0010F18BFFB1A43F0A5
:1001600001031847181F0000381F00000A444FF011
:10017000000C10F8013B13F0070408BF10F8014B06
:100180001D1108BF10F8015B641E05D010F8016B4B
:10019000641E01F8016BF9D113F0080F1EBF10F8AF
:1001A000014BAD1C0C1B09D16D1E58BF01F801CBD2
:1001B000FAD505E014F8016B01F8016B6D1EF9D555
:1001C0009142D6D37047000000230024002500266A
:1001D000103A28BF78C1FBD8520728BF30C148BFAA
:1001E0000B6070471FB51FBD10B510BD01F00EFFAD
:1001F0001146FFF7F7FF01F095FA01F02CFF03B469
:10020000FFF7F2FF03BC01F031FF0000094880470F
:1002100009480047FEE7FEE7FEE7FEE7FEE7FEE7E8
:10022000FEE7FEE7FEE7FEE704480549054A064B00
:10023000704700002903000831010008B8040020BD
:10024000B80A0020B8060020B80600200CB500202F
:10025000019000906B48006840F480306949086064
:1002600000BF6848006800F4003000900198401C0E
:100270000190009818B90198B0F5A06FF1D16148CC
:10028000006810F4003F02D00120009001E000203F
:1002900000900098012842D15B48006840F01000AF
:1002A000594908600846006820F0030008600846C5
:1002B000006840F0010008605248406851494860B9
:1002C0000846406848600846406840F480604860DE
:1002D0000846406820F47C1048600846406840F4B6
:1002E000881048600846006840F08070086000BFD1
:1002F0004448006810F0007FFAD04248406820F07F
:100300000300404948600846406840F002004860E9
:1003100000BF3C48406800F00C000828F9D10CBD33
:1003200010B5FFF793FF10BD10B53648006840F0D8
:1003300001003449086008464068344908403149A2
:10034000486008460068324908402E49086008465F
:10035000006820F4802008600846406820F4FE0011
:1003600048604FF41F008860FFF7DAFF4FF000602D
:100370002849086010BD10B5002100200022214B43
:100380005B6803F00C0121B1042906D0082928D1AB
:1003900007E0214B214C236027E01F4B1F4C2360BB
:1003A00023E0184B5B6803F47010164B5B6803F492
:1003B0008032022303EB904022B9194B4343174C80
:1003C00023600DE00F4B5B6813F4003F04D0144B27
:1003D0004343124C236003E00F4B43430F4C236015
:1003E00003E00D4B0D4C236000BF00BF054B5B6865
:1003F000C3F303130B4CE15C084B1B68CB40074C69
:10040000236010BD00100240002002400000FFF8F1
:10041000FFFFF6FE08ED00E000127A000000002069
:1004200000093D000400002010B50446CA4884427B
:1004300008D10121042000F027FB0021042000F056
:1004400023FB46E0C548844208D10121082000F082
:100450001BFB0021082000F017FB3AE0C048844253
:1004600008D10121102000F00FFB0021102000F026
:100470000BFB2EE0BB48844208D10121202000F074
:1004800003FB0021202000F0FFFA22E0B64884425E
:1004900008D10121402000F0F7FA0021402000F0AF
:1004A000F3FA16E0B148844208D10121802000F01F
:1004B000EBFA0021802000F0E7FA0AE0AC48844221
:1004C00007D10121801500F0DFFA0021A01500F00E
:1004D000DBFA10BD10B50121084600F0D5FA002165
:1004E000012000F0D1FA10BD2DE9F04102460025AF
:1004F0000026002000230024002791F803C00CF000
:100500000F0591F803C01CF0100F03D091F802C042
:100510004CEA050591F800C0BCF1000F31D0146819
:1005200000202BE04FF0010C0CFA00F3B1F800C0F2
:100530000CEA03069E4220D183004FF00F0C0CFA08
:1005400003F7BC4305FA03FC4CEA040491F803C02A
:10055000BCF1280F06D14FF0010C0CFA00FCC2F8D8
:1005600014C00AE091F803C0BCF1480F05D14FF068
:10057000010C0CFA00FCC2F810C0401C0828D1D3B2
:100580001460B1F800C0BCF1FF0F34DD54680020E6
:100590002EE000F1080C4FF0010808FA0CF3B1F856
:1005A00000C00CEA03069E4221D183004FF00F0CDD
:1005B0000CFA03F7BC4305FA03FC4CEA040491F877
:1005C00003C0BCF1280F05D100F1080C08FA0CF8A3
:1005D000C2F8148091F803C0BCF1480F07D100F1B4
:1005E000080C4FF0010808FA0CF8C2F81080401C03
:1005F0000828CED35460BDE8F0814FF6FF7101802A
:10060000022181700421C170704702460020936866
:100610000B4201D0012000E00020704701468868AD
:1006200080B2704702460020D3680B4201D00120FF
:1006300000E0002070470146C86880B27047016141
:100640007047416170470AB1016100E04161704744
:10065000C16070474FF480320A43826181618261D8
:1006600082698269704702460020424B18684FF643
:100670008073184040EA021008433E4B18607047F0
:100680003D49C8617047F0B50A46002300240021A7
:10069000002500F00046B6F1004F02D1354EF16959
:1006A00001E0344E7168C0F3034583B200F4401694
:1006B000B6F5401F08D121F070612E4E766826F005
:1006C00070662C4F7E6012E000F48016B6F5801F35
:1006D00006D1032606FA05F4A14341F0706106E055
:1006E000460D360103FA06F6B14341F0706122B1BE
:1006F000460D360103FA06F6314300F00046B6F126
:10070000004F02D11B4EF16101E01A4E7160F0BD45
:1007100030B500228B071C0F0F2303FA04F2154B90
:1007200008338C1053F824309343124C08348D1046
:1007300044F8253023468C1053F824308C07240FBE
:1007400000FA04F423430B4C08348D1044F8253090
:1007500030BD0A490860704700080140000C0140A4
:10076000001001400014014000180140001C01402D
:10077000002001400000014000002042DC00204237
:10078000DD48006840F00100DB4908600846406829
:10079000DA490840D849486008460068D849084006
:1007A000D54908600846006820F4802008600846A3
:1007B000406820F4FE0048604FF41F0088607047D6
:1007C000CD49096821F48031CB4A1160114609688E
:1007D00021F480211160B0F5803F03D0B0F5802F67
:1007E0000ED106E0C449096841F48031C24A116063
:1007F00007E0C149096841F4A021BF4A116000E047
:1008000000BF00BF704710B5014600220023002042
:100810004A11012A02D1B84C236806E0022A02D10B
:10082000B54C236A01E0B44C636A01F01F02012455
:1008300094401C4201D0012000E0002010BD38B5DA
:10084000002000900024002500BF3120FFF7DBFFCF
:1008500005460098401C00900098B0F5A06F01D0AC
:10086000002DF2D03120FFF7CEFF08B1012400E0C7
:100870000024204638BD014600209F4A106820F021
:10088000F80040EAC100106070479E490860704758
:1008900002460020984B586820F47C1042EA01037D
:1008A0001843954B58607047964908667047014653
:1008B0000020914A506820F00300084350607047C0
:1008C0008D48406800F00C007047014600208A4ABD
:1008D000506820F0F0000843506070470146002047
:1008E000854A506820F4E060084350607047014634
:1008F0000020814A506820F4605040EAC1005060F6
:10090000704729B17C4A527A02437B4B5A7204E009
:10091000794A527A8243784B5A7270477A49086012
:10092000704701460020744A506820F44040084354
:10093000506070470021754A11706F4A82F820108C
:10094000012802D0042808D103E001216F4A117068
:1009500004E005216D4A117000E000BF00BF704740
:100960006B49086070476449096A0143624A116231
:100970007047674944390860704730B5002100224C
:10098000002400235C4D6D6805F00C0121B10429A1
:1009900005D0082923D105E05E4D056022E05D4DBC
:1009A00005601FE0544D6D6805F47012524D6D687E
:1009B00005F48034022505EB92421CB9564D55438F
:1009C00005600BE04C4D6D6815F4003F03D0524DAF
:1009D0005543056002E04F4D5543056002E04D4D23
:1009E000056000BF00BF444D6D6805F0F0010909C6
:1009F0004A4D6B5C0568DD4045603F4D6D6805F410
:100A0000E061090A454D6B5C4568DD4085603A4D03
:100A10006D6805F46051C90A404D6B5C4568DD4066
:100A2000C560354D6D6805F44041890B3C4D6B5CEC
:100A3000C568B5FBF3F5056130BD29B12E4A526991
:100A400002432D4B5A6104E02B4A526982432A4BE0
:100A50005A61704729B1284A92690243264B9A612C
:100A600004E0254A92698243234B9A61704729B179
:100A7000214AD2690243204BDA6104E01E4AD2695E
:100A800082431D4BDA61704729B11B4AD268024389
:100A9000194BDA6004E0184AD2688243164BDA60D8
:100AA000704729B1144A12690243134B1A6104E0DA
:100AB000114A12698243104B1A6170471449403938
:100AC000086070470F49C86470470B49C871704788
:100AD0000948406A40F08070074948627047014603
:100AE0000020054A92680A4201D0012000E000205F
:100AF0007047014988727047001002400000FFF8FB
:100B0000FFFFF6FE00004242D800424220100240A1
:100B10008004424200127A0000093D0014000020C7
:100B20002400002010B50446FB48844209D101216D
:100B30008803FFF7A9FF00214FF48040FFF7A4FFCF
:100B400032E0F648844209D101214804FFF7A9FFA9
:100B500000214FF40030FFF7A4FF25E0F048844265
:100B600009D101218804FFF79CFF00214FF4802068
:100B7000FFF797FF18E0EB48844209D10121C80430
:100B8000FFF78FFF00214FF40020FFF78AFF0BE0F3
:100B9000E548844208D101210805FFF782FF0021C2
:100BA0004FF48010FFF77DFF10BD2DE9F04786B0B0
:100BB00005460E460024A24600BFA1460027B08984
:100BC00000B100BF2F462C8A4CF6FF700440F0881D
:100BD00004432C82AC894EF6F3100440B08831896E
:100BE0000843718908430443AC81AC8A4FF6FF4047
:100BF0000440B0890443AC8201A8FFF7BEFEC6489A
:100C0000874202D1DDF810A001E0DDF80CA0A88930
:100C100010F4004F08D00AEBCA0000EB0A1031684C
:100C20004900B0FBF1F807E00AEBCA0000EB0A103C
:100C300031688900B0FBF1F86420B8FBF0F00401E2
:100C40002009642101FB1089A88910F4004F08D005
:100C5000322000EBC900B0FBF1F000F007000443C4
:100C600008E0322000EB09106421B0FBF1F000F045
:100C70000F0004432C8106B0BDE8F0874FF41651F5
:100C8000016000218180C18001810C21418100210E
:100C90008181704710B502460020108A4FF2FF0391
:100CA00018400B884C8823438C882343CC882343EB
:100CB0001843108210BD0021018041808180C180D5
:100CC000704721B1828942F40052828104E0828916
:100CD0004DF6FF731A4082817047F0B50346002439
:100CE000002600250020A1F510676A3F00D100BF53
:100CF0001846C1F3421401F01F06012707FA06F552
:100D0000012C01D10C3004E0022C01D1103000E0A4
:100D100014301AB107682F43076002E00768AF4339
:100D20000760F0BD1AB1838A0B43838202E0838A95
:100D30008B4383827047028A4FF6F0731A40028217
:100D4000028A0A430282704782894FF2FF731A4077
:100D5000828182890A438281704721B1828942F06F
:100D60000202828104E082894FF6FD731A4082817B
:100D70007047028A4FF6DF731A400282028A0A43E2
:100D80000282704721B1028A42F48042028204E06A
:100D9000028A4BF6FF731A4002827047C1F30802C1
:100DA0008280704701468888C0F3080070478189B7
:100DB00041F0010181817047028BD2B20283028B24
:100DC00042EA012202837047028B02F47F420283CF
:100DD000028B0A430283704721B1828A42F02002CB
:100DE000828204E0828A4FF6DF731A408282704763
:100DF00021B1828A42F01002828204E0828A4FF698
:100E0000EF731A408282704721B1828A42F0080251
:100E1000828204E0828A4FF6F7731A40828270471A
:100E200021B1828942F40042828103E08289C2F3C7
:100E30000E028281704721B1828A42F4006282826E
:100E400004E0828A4FF2FF731A4082827047828ADE
:100E50004FF6FB731A408282828A0A43828270476D
:100E600021B1828A42F00202828204E0828A4FF635
:100E7000FD731A408282704702460020B1F5007F60
:100E800000D100BF13880B4201D0012000E00020F8
:100E9000704701F40072B2F5007F00D100BFCA4371
:100EA0000280704770B50246002400230025002010
:100EB000A1F510666A3E00D100BFC1F3421501F0F2
:100EC0001F03012606FA03F3012D02D19689334050
:100ED00006E0022D02D1168A334001E0968A3340A3
:100EE0000C12012606FA04F41688344013B10CB132
:100EF000012000E0002070BD10B500220023A1F504
:100F000010646A3C00D100BF0A1201249440A3B2CD
:100F1000DC43048010BD0000003801400044004064
:100F200000480040004C00400050004030B50446EE
:100F30000B46874923B300BF0888984200D105E0DB
:100F400018310888A0F57F45FF3DF5D100BF08881E
:100F5000A0F57F45FF3D01D1681E30BD4888904215
:100F600002D04FF0FF30F8E77A4D48682860886873
:100F70006860C868A8600869E8604869286102E09C
:100F80004FF0FF30E9E7744804700020E5E72DE9F1
:100F9000F04105460F460F2D03DB4FF0FF30BDE853
:100FA000F081072D18DA012038806C4E002410E003
:100FB0003068A84206D16A48D0F800C0301D0FC87A
:100FC000E04708E0032C02DB4FF0FF30E7E7143680
:100FD000641C042CECDB18E002203880A5F108002A
:100FE000C5B2DFF8808100240CE0D8F80000A842E8
:100FF00000D109E0032C02DB4FF0FF30CFE708F10E
:101000002408641C042CF0DB00BF0020C7E7F8B5FF
:1010100005460E4614461F460020009069462846A5
:10102000FFF7B5FF10B14FF0FF30F8BDBDF800205D
:1010300031462046FFF77AFF10B14FF0FF30F4E75A
:101040000020F2E770B506460C4642490868804722
:1010500017E0B4F5007F02DD4FF4007500E025468F
:101060003C48414A294683683046984720B929467A
:101070003D4800F099FB02E04FF0FF3070BD641B6B
:101080002E44002CE5DC0020F8E7F8B506460C46B7
:10109000232000902F49086880471AE0B4F5007FAC
:1010A00002DD4FF4007500E025460121684600F09E
:1010B0007BFB29462C4800F08CFB26482A4A29460F
:1010C000C3683046984710B14FF0FF30F8BD641B3D
:1010D0002E44002CE2DC0020F8E770B504460D46F3
:1010E0001C49086880471B482946026920469047EA
:1010F00070BD2DE9F04707460C4690461549086833
:1011000080474FF000091DE0B4F5007F02DD4FF489
:10111000007500E025460F48134A29468368384683
:10112000984748B9002604E00F48805D8144701C50
:1011300086B2AE42F8D303E04FF0FF30BDE8F0874F
:10114000641B2F44002CDFDCC8F800900020F5E77A
:101150000C0100203402002008010020280000209B
:101160006C01002078000020580200208649087891
:1011700000BF411EC9B20800FBD170470FB50098EF
:101180000C304FF0844101EB4010019900EB8100DD
:101190007E490860029808304FF0844101EB40100E
:1011A000039900EB81007A49086002980C304FF0F7
:1011B000844101EB4010039900EB81007549086000
:1011C0000FBD00B500BF012070490968086000BF6D
:1011D000FFF7CCFF00BF01206E490968086000BF1F
:1011E000FFF7C4FF00BD00B500BF012069490968D1
:1011F000086000BFFFF7BAFF00BF0120634909681C
:10120000086000BFFFF7B2FF00BF00206149096816
:10121000086000BFFFF7AAFF00BF00205B49096814
:10122000086000BFFFF7A2FF00BD00B500BF0020AF
:1012300058490968086000BFFFF798FF00BF012008
:1012400052490968086000BFFFF790FF00BF012006
:1012500050490968086000BFFFF788FF00BD00B56E
:101260000246082300BF12F0800F05D000BF012006
:1012700048490968086005E000BF00204549096841
:10128000086000BF5006020E00BF01203F490968F8
:10129000086000BFFFF76AFF00BF00203B490968F4
:1012A000086000BFFFF762FF581EC0B20300DAD12A
:1012B00000BD00B5082300BF012036490968086059
:1012C00000BF00BF00BF012030490968086000BFAF
:1012D000FFF74CFF5006020E2D480068006808B169
:1012E000501CC2B200BF002028490968086000BF36
:1012F000FFF73CFF581EC0B20300E3D1104600BD0B
:1013000000B500BF012023490968086000BFFFF74E
:101310002DFF00BF01201D490968086000BFFFF7CD
:1013200025FF1B4800680068C2B200BF00201749B3
:101330000968086000BFFFF719FF104600BD00B53F
:10134000024602F001022AB100BF012011490968DA
:10135000086005E000BF00200E490968086000BF72
:10136000FFF704FF00BF012008490968086000BFBB
:10137000FFF7FCFE00BF002004490968086000BFB9
:10138000FFF7F4FE00BD0000980100208C01002052
:1013900090010020940100201FB54FF4E13000902F
:1013A0000020ADF80400ADF80600ADF80800ADF877
:1013B0000C000C20ADF80A0069462848FFF7F5FB41
:1013C00001212648FFF77DFC1FBD08B54FF4806062
:1013D000ADF8000004208DF8030069462048FFF7AF
:1013E00083F84FF40070ADF8000003208DF8020080
:1013F00018208DF8030069461948FFF775F84FF477
:101400008050ADF8000001208DF8020014208DF806
:10141000030069461348FFF767F84FF48040ADF8C2
:10142000000001208DF8020014208DF803006946A9
:101430000C48FFF759F808BD10B501210D20FFF742
:1014400009FB01218803FFF705FB10BD10B5FFF76D
:10145000F3FFFFF7BAFFFFF79FFF10BD0038014011
:1014600000080140000C014070B5C44800F0ACFD1C
:10147000C5B200240DE0C148015DC148FFF78EFCF4
:1014800000BF8021BE48FFF7F7FC0028F9D0601CA0
:10149000C4B2AC42EFDB70BD10B50446B94920467A
:1014A00000F06EFD10BD2DE9FF5F054615F8011B2C
:1014B0004FEA012915F8010B40EA0909AF4C641CF9
:1014C00043F23311A9EB010089454AD016DC43F2FF
:1014D0003301A9EB010089453AD008DCA9F5405059
:1014E000303822D0012827D0022875D12AE0FD28E3
:1014F00034D0FE2833D0FF28F7D131E040F2FD325E
:10150000811A904269D009DCFD2835D0A0F58070A1
:10151000FD3872D0B0F5807FE7D174E0B1F5807FFF
:101520006AD0B1F5007FE0D1D0E0312004F8010BA2
:101530002046FFF7B1FFF0E0312004F8010B002056
:101540002070EAE0312004F8010B00202070E4E074
:10155000302004F8010B00202070DEE000BF00BF47
:1015600000BF312004F8010B462004F8010B04F8F9
:10157000010B00202070D0E015F8010B00F040F9BD
:1015800002900421284600F04FF91FFA80FA2D1D21
:101590000221284600F048F900F0FF0BAD1C0221A3
:1015A000284600F041F9C0B201905A465146DDE9A3
:1015B0000130FFF72CFDC6B236B9312004F8010B1B
:1015C000302004F8010B04E0302004F8010B04F88B
:1015D000016B4FF0000808E099E036E0302004F895
:1015E000010B08F1010000F0FF08B8F10A0FF5DB6C
:1015F0000020207091E000E048E0302004F8010B6A
:101600000020207089E00621284600F00DF90746E9
:10161000AD1D0621284600F007F903900027384643
:101620000399FFF70FFDC6B236B9312004F8010B5C
:10163000302004F8010B05E0302004F8010B3120C4
:1016400004F8010B0020207067E00621284600F016
:10165000EBF80746AD1D0621284600F0E5F803909B
:1016600000200399FFF711FDC6B236B9312004F806
:10167000010B302004F8010B05E0302004F8010BC9
:10168000312004F8010B0020207046E00621284696
:1016900000F0CAF80746AD1D0621284600F0C4F840
:1016A000039000200399FFF718FDC6B236B9312028
:1016B00004F8010B302004F8010B04E0302004F89A
:1016C000010B04F8016B0020207026E0062128465B
:1016D00000F0AAF80746AD1D0621284600F0A4F840
:1016E00003906A4600200399FFF703FDC6B236B99E
:1016F000312004F8010B302004F8010B04E0302005
:1017000004F8010B04F8016B0020207005E0302084
:1017100004F8010B0020207000BF00BFFFF7A4FEFB
:10172000BDE8FF9FFFF792FE0024002524E000BFE4
:1017300020211348FFF7A0FB0028F9D01048FFF73D
:1017400031FB11490855012D09D10846005D2428B7
:1017500002D10024002508E0601CC4B205E025B9D0
:101760000948005D242800D10125102C04DB06481F
:10177000FFF799FE00240025D9E700009901002019
:1017800000380140B901002048020020704700BF26
:10179000FEE700BFFEE700BFFEE700BFFEE77047C1
:1017A000704770477047000070B504460D460BE067
:1017B00014F8011B1148FFF7F1FA00BF80210F4810
:1017C000FFF75AFB0028F9D02800A5F10105EFD159
:1017D00070BD70B504460D460BE000BF20210748E0
:1017E000FFF74AFB0028F9D00448FFF7DBFA04F8BA
:1017F000010B2800A5F10105EFD170BD00380140B3
:10180000302805DB392803DCA0F13001C8B208E03C
:10181000412805DB5A2803DCA0F13701C8B200E0FB
:10182000FF2070470020704730B504460B46002566
:10183000002208E0A05CFFF7E3FF591E891A890027
:1018400088400543521C9A42F4DB284630BD000014
:101850004FF4004000BF011EA0F1010290B2FADC7B
:10186000704770B504460D46B54988688047B54A4B
:10187000127802F0FE00B24A11698847B0498869BF
:10188000804728B1AE49C86880474FF0FF3070BD2F
:1018900010E014F8010BAA4A11698847A849886921
:1018A000804728B1A649C86880474FF0FF30EEE76F
:1018B000681EC5B2002DECDCA149C8688047002035
:1018C000E5E72DE9FF4781468A4690461D460027F9
:1018D0000024102D03DD601E04B0BDE8F08706E093
:1018E00051464846FFF7BDFF00B100E003E038462F
:1018F0007F1C0328F4DB00BF032F02DB4FF0FF3017
:10190000EAE7002736E08E49886880478D4A1278DA
:1019100042F001008A4A11698847894988698047ED
:1019200028B18749C86880474FF0FF30D4E70026C8
:10193000002400BF8249486980470DF804008048B0
:10194000C1690020884736B99DF8000010F0010FEA
:1019500006D1012604E0601C0446A84200DB01E039
:10196000002EE7D100BF7649C8688047FFF770FFB7
:1019700006B104E038467F1CB0F57A7FC3DB00BFB8
:1019800076B1002409E01DF8040018F8041088421C
:1019900002D04FF0FF309FE7641CAC42F3DB02E063
:1019A0004FF0FF3098E7002096E710B5644948688B
:1019B00080470123644A19466448FFF782FF10B14B
:1019C0004FF0FF3010BD0123614A0A216148FFF743
:1019D00078FF10B14FF0FF30F4E701235E4A0A218F
:1019E0005E48FFF76EFF10B14FF0FF30EAE70020CE
:1019F000E8E70246002070472DE9F04106460C4614
:101A00001546F7B24E49886880474E4A127802F070
:101A1000FE004B4A1169884749498869804730B1BF
:101A20004749C86880474FF0FF30BDE8F08144481F
:101A300001693846884742498869804728B140494A
:101A4000C86880474FF0FF30EFE73D49886880471E
:101A50003C4A127842F00100394A116988473849F6
:101A60008869804728B13649C86880474FF0FF3001
:101A7000DBE710E032494869804705F8010B012C8B
:101A800004D12F48C1690120884706E02C48C1696C
:101A900000208847641E002CECDC00BF2849C86881
:101AA00080470020C1E72DE9F04107460C46154666
:101AB00007F0FF08224988688047224A127802F01E
:101AC000FE001F4A116988471D498869804730B167
:101AD0001B49C86880474FF0FF30BDE8F0811848C7
:101AE00001694046884716498869804728B11449EA
:101AF000C86880474FF0FF30EFE716E015F8016B3C
:101B0000022C03D146F0400626F080060C480169FD
:101B1000304688470A498869804728B10849C8681B
:101B200080474FF0FF30D8E7641E002CE6DC044904
:101B3000C86880470020D0E70246002070470000B8
:101B40006C01002008010020CA010020C90100200A
:101B5000D5010020CB010020E0010020D6010020AB
:101B60004FF4004000BF011EA0F1010290B2FADC68
:101B7000704710B57C4948688047002010BD024678
:101B8000002070472DE9F04106460C461546F7B295
:101B9000754988688047754A127802F0FE00724ADB
:101BA0001169884770498869804730B16E49C868B3
:101BB00080474FF0FF30BDE8F0816B48016938463F
:101BC000884769498869804728B16749C86880475C
:101BD0004FF0FF30EFE7644988688047634A127826
:101BE00042F00100604A116988475F49886980476F
:101BF00028B15D49C86880474FF0FF30DBE710E04F
:101C000059494869804705F8010B012C04D1564811
:101C1000C1690120884706E05348C1690020884710
:101C2000641E002CECDC00BF4F49C86880470020D0
:101C3000C1E72DE9F84F80460C46154608F0FF0B2A
:101C40004BA000680090002647E04749886880471D
:101C5000464A127802F0FE00434A11698847424919
:101C60008869804730B14049C86880474FF0FF30ED
:101C7000BDE8F88F1DF806003B4A116988473A49CC
:101C80008869804728B13849C86880474FF0FF30DD
:101C9000EEE74FF004091DF8060005EB400A12E0DC
:101CA0001AF8010B304A116988472F498869804723
:101CB00028B12D49C86880474FF0FF30D8E7A9F117
:101CC000010000F0FF09B9F1000FE9DC2649C868FE
:101CD0008047FFF745FF701CC6B2042EB5DB2249D2
:101CE00088688047214A127802F0FE001E4A116976
:101CF00088471D498869804728B11B49C8688047C3
:101D00004FF0FF30B4E71848016958468847164934
:101D10008869804728B11449C86880474FF0FF3070
:101D2000A6E716E015F8017B022C03D147F0400727
:101D300027F080070C480169384688470A498869B6
:101D4000804728B10849C86880474FF0FF308FE7C7
:101D5000641E002CE6DC0449C8688047002087E741
:101D600002460020704700006C010020080100209E
:101D7000181C31344FF4004000BF011EA0F10102D5
:101D800090B2FADC704710B5794948688047002066
:101D900010BD0246002070472DE9F04106460C4672
:101DA0001546F7B2724988688047724A127802F085
:101DB000FE006F4A116988476D498869804730B1D4
:101DC0006B49C86880474FF0FF30BDE8F081684834
:101DD00001693846884766498869804728B164495F
:101DE000C86880474FF0FF30EFE761498868804757
:101DF000604A127842F001005D4A116988475C49E7
:101E00008869804728B15A49C86880474FF0FF3039
:101E1000DBE710E056494869804705F8010B012CC3
:101E200004D15348C1690120884706E05048C16980
:101E300000208847641E002CECDC00BF4C49C868B9
:101E400080470020C1E72DE9FC4781460C46154636
:101E500009F0FF0A48A00068019048A000680090BF
:101E600000263FE0424988688047424A127802F0E3
:101E7000FE003F4A116988473D498869804730B173
:101E80003B49C86880474FF0FF30BDE8FC8701AA96
:101E9000905D374A1169884735498869804728B17C
:101EA0003349C86880474FF0FF30EEE7002710E065
:101EB0001DF807002E4A116988472D498869804717
:101EC00028B12B49C86880474FF0FF30DDE7781C08
:101ED000C7B2042FECDB2649C8688047FFF74AFFEA
:101EE000701CC6B2022EBDDB214988688047214A9A
:101EF000127802F0FE001E4A116988471C49886961
:101F0000804728B11A49C86880474FF0FF30BCE7C6
:101F1000174801695046884715498869804728B1A4
:101F20001349C86880474FF0FF30AEE716E015F858
:101F3000018B022C03D148F0400828F080080C489F
:101F40000169404688470A498869804728B108499D
:101F5000C86880474FF0FF3097E7641E002CE6DC2E
:101F60000349C868804700208FE702460020704779
:101F70006C0100200801002018310000000003FF60
:101F800040EA0103024630B59B0710D14FF00134FF
:101F900000E008C208C91D1B9D4315EAC41FF8D004
:101FA00013F0FF0102F8011B0DD01B0AF8E711F82E
:101FB000013B002B02F8013B05D011F8013B002B3F
:101FC00002F8013BF3D130BD10B5431C02E010F81C
:101FD000011B71B18107FAD14FF0013202C88C1A8E
:101FE0008C4314EAC211F9D0C01A0A0603D0C01EED
:101FF00010BDC01A10BD0A0401D0801E10BD090218
:10200000FCD0401E10BD704770477047754600F009
:1020100029F8AE4605006946534620F0070085467C
:1020200018B020B5FEF700F9BDE820404FF00006DB
:102030004FF000074FF000084FF0000B21F00701B0
:10204000AC46ACE8C009ACE8C009ACE8C009ACE8F3
:10205000C0098D4670470446AFF300802046FEF766
:10206000CEF80000004870475804002001491820AD
:10207000ABBEFEE726000200704700009C2000086F
:1020800000000020340200006C01000898210008C4
:102090003402002084080000C801000811846CDCB0
:1020A00002680901020304060708090C69105502B9
:1020B0000406085D0C01400C082A0E24091114398D
:1020C0004DD9140A110314513C0801405919085AFA
:1020D000061C5A0D086A0F60091D243970091D2459
:1020E0003980091D2439F4190213731B1B087F045E
:1020F0001A850413331C1408611D1B0803181A8762
:10210000081A93041A990413471E14086B1F1B081E
:10211000021813AB191B08F3041AF90413A71A1BAE
:102120000839380316FFFF137D111B08C3041AE793
:1021300004132B121B085F041AB3041301131B08AA
:102140003F04D1021F24200F323031333130323678
:1021500076312E302E3016117A26380728080620C0
:1021600023100A746C0B3A0150150E26380E3CFFF2
:102170006150071E602126380D0749143A010712E5
:1021800064491B7A691B4C02FF64134AB8284A2031
:082190000E4AB92131000000E4
:040000050800020DE0
:00000001FF
